:020000040800F2
:10000000480700208926000891260008932600084A
:100010009526000897260008992600080000000091
:100020000000000000000000000000009B26000807
:100030009D260008000000009F260008A126000859
:100040003F0C0008410C0008430C0008450C000858
:10005000470C0008490C00084B0C00084D0C000828
:100060004F0C00085F0C0008610C0008630C0008CE
:10007000650C0008670C0008690C00086B0C000890
:100080006D0C00086F0C0008710C0008A326000816
:10009000A3260008A3260008A32600087B0C00085E
:1000A0007D0C00087F0C0008810C0008830C000800
:1000B000850C0008870C0008890C00088B0C0008D0
:1000C0008D0C00088F0C0008910C0008930C0008A0
:1000D000950C0008970C0008BB0C0008BD0C00082C
:1000E000BF0C0008C10C0008C30C0008C50C0008B8
:1000F000C70C0008C90C0008CB0C0008CD0C000888
:10010000CF0C0008D10C0008D30C0008D50C000857
:10011000D70C0008D90C0008DB0C0008DD0C000827
:10012000DF0C0008E10C0008E30C0008E50C0008F7
:1001300000F002F800F03CF80AA090E8000C8244BD
:100140008344AAF10107DA4501D100F031F8AFF29A
:10015000090EBAE80F0013F0010F18BFFB1A43F0A5
:10016000010318474439000064390000103A24BFE5
:1001700078C878C1FAD8520724BF30C830C144BF0C
:1001800004680C607047000000230024002500264E
:10019000103A28BF78C1FBD8520728BF30C148BFEA
:1001A0000B6070471FB503F078FC1FBD10B510BD84
:1001B00003F037FC1146FFF7F5FF00F0D8F903F024
:1001C00055FC03B4FFF7F2FF03BC03F05FFC000033
:1001D00010B50121084603F0A3F90121080203F03C
:1001E0009FF901217C2003F0A8F90121084603F0C2
:1001F000A4F90121880303F0A0F90121480403F0C8
:10020000A9F910BD08B548208DF803000420ADF809
:1002100000006946CB4802F0DDFE0221032002F017
:10022000EDFF10208DF8030002208DF802004FF63C
:10023000FF70ADF800006946C34802F0CBFE4820CD
:100240008DF803006946C14802F0C4FE4FF4005027
:10025000ADF800006946BE4802F0BCFE10208DF8E3
:1002600003000001ADF8000002208DF8020069468D
:10027000B74802F0AFFE4FF40070ADF80000182050
:100280008DF8030001208DF802006946B04802F0A5
:10029000A1FE4FF48060ADF8000004208DF803004B
:1002A0006946AB4802F096FE0420ADF80000182025
:1002B0008DF8030001208DF802006946A44802F081
:1002C00089FE0820ADF8000004208DF8030069467F
:1002D0009F4802F07FFE4CF20370ADF8000018203A
:1002E0008DF8030003208DF802006946954802F05E
:1002F00071FE4FF68070ADF800006946954802F037
:1003000069FE4FF46050ADF8000069468D4802F078
:1003100061FE3020ADF8000069468A4802F05AFEBE
:100320008020ADF800006946864802F053FE402068
:10033000ADF8000048208DF803006946814802F0BE
:1003400049FE08BD1FB5844803F062F94FF4E1305F
:1003500000900020ADF80400ADF80800ADF80600EC
:10036000ADF80C000C20ADF80A0069467A4803F09D
:1003700092F9012240F22551774803F024FA012135
:10038000754803F014FA1FBD1FB5744803F040F917
:100390004FF4E13000900020ADF80400ADF8080003
:1003A000ADF80600ADF80C000C20ADF80A00694667
:1003B0006A4803F070F9012240F22551674803F0C2
:1003C00002FA0121654803F0F2F91FBD70B5044639
:1003D0000D46002600BF1AE02088C1B25E4803F037
:1003E00056FA00BF80215C4803F0BFFA0028F9D01C
:1003F00020880112584803F04AFA00BF802156486D
:1004000003F0B3FA0028F9D0A41C701CC6B2AE42A7
:10041000E2DB0020208070BD00B597B00020019085
:1004200002900520039000200490059006904FF064
:100430008050079000200890099008200A90102012
:100440000B9000200C904FF400400D9000200E9077
:100450000F9010904FF48050119000201290139044
:10046000149001A8159008A802F097FA0121002025
:1004700002F0F4FB17B000BD08B525208DF8000090
:1004800001208DF8010000208DF8020001208DF878
:100490000300684602F01DF926208DF800000120B7
:1004A0008DF801008DF802008DF80300684602F017
:1004B00010F908208DF8000000208DF801000120BF
:1004C0008DF802008DF80300684602F002F908BDBD
:1004D00000B589B04FF4706000F09CFD00208DF8ED
:1004E00021008DF8200001208DF81F0000208DF8DC
:1004F0001E008DF81D008DF81C00DDE9070101F0DC
:10050000E8F8174802900520ADF80C00ADF80E0091
:100510000A20ADF81000ADF812000020ADF816006A
:100520004FF4FA70ADF818000020ADF81400ADF8E3
:100530001A000698009002A80FC801F033F909B01C
:1005400000BD00000014014000100140000C0140FB
:1005500000080140001801400038014000440040FC
:1005600000127A0000E0401E0028FCD17047FFF71F
:100570002FFEFFF747FEFFF7E5FEFFF74DFFFFF702
:100580007BFF00F037FD4FF47A70FFF7EBFFFFF7CA
:100590009FFF2EE3F8480078D8B3F8480078512838
:1005A00070D012DC4C2859D008DC30286BD03E28A3
:1005B0001CD03F282ED04A287DD13EE04D287BD04C
:1005C0004E287AD0502876D1E0E0562876D006DC46
:1005D000522874D0542873D055286CD14DE2572836
:1005E00052D058286DD0602865D1B2E2E248007838
:1005F00002280DD10020E0490870E049487801F058
:100600008EFD05460146DE4803F041F900F070FC1E
:10061000EEE2EEE2D848007803280DD10020D6495A
:100620000870D64A9178507801F09EFD3F21D44859
:1006300003F02DF900F05CFCDAE2CF4800780428E2
:100640000BD10020CC490870CC4801F052F94A2166
:10065000CB4803F01CF900F04BFCC9E2C648007817
:1006600002280ED10020C4490870C4494978080204
:10067000002100F03BFD4C21C14803F008F900F0D7
:1006800037FCB5E293E01AE2BB48007802285AD161
:100690000020B9490870B9494978080200F089FD7D
:1006A000B8490860B548407800F0FE00B34948708A
:1006B0004978080206E093E246E056E0EEE186E083
:1006C00096E00DE200F075FDAF4908605720AF4994
:1006D0004872AD4800680872AB480068000AC871EB
:1006E000A9480068000C8871A7480068000E48718E
:1006F000A44800680871A3480068000AC870A148AF
:100700000068000C88709F480068000E487009203F
:10071000087000209E4908700FE09C489C4A12789F
:10072000815C974803F0B3F84FF6FF70FFF71AFFAC
:1007300097480078401C96490870954800780A2828
:10074000EBDB00F0D5FB53E28B48007808280BD197
:10075000002089490870894801F001F94D21884835
:1007600003F095F800F0C4FB42E2834800780328C8
:100770000BD1002080490870804801F04AF94E21D1
:100780007F4803F084F800F0B3FB31E27A48007848
:1007900006280BD1002078490870784801F04FF9FD
:1007A0005021774803F073F800F0A2FB20E2724872
:1007B000007801280AD100206F49087001F07DF906
:1007C00051216F4803F063F800F092FB10E26A4891
:1007D00000782D280BD1002067490870674801F088
:1007E0001EFE5221664803F052F800F081FBFFE143
:1007F0006148007802287ED100205F490870614975
:1008000008606149086054215D4803F040F800BF6A
:1008100080215B4803F0A9F80028F9D04E205D49FB
:1008200008705648407848702320887000205A4944
:10083000087015E051494978080200F0EBFB554873
:1008400001F0E7F8022000F0ABFB544908800846AD
:100850000088514908700846007800F008000870C8
:100860004D4800780028E5D000204B49087022212F
:10087000434803F00CF800BF8021414803F075F8AD
:100880000028F9D00020464908703C48407848705C
:10089000002088706420C8700020424908703748E2
:1008A00040784870082088702020C87000200871A7
:1008B00048718871FF20C87100203B4908702F489B
:1008C00040784870082088702120C8700020087186
:1008D00048718871FF20C871562034490870274834
:1008E00040784870262088702D4801F002F8304882
:1008F000FFF738FE00E0BFE020494978080200F029
:1009000058FC20490860274801F029F833211C4889
:1009100002F0BDFF00BF8021194803F026F800282F
:10092000F9D00DE0AA21164802F0B1FF1349497829
:10093000080200F03EFC144908601E48FFF712FE52
:10094000114801680F480068FF308142EAD1442114
:100950000B4802F09CFF00BF8021094803F005F816
:100960000028F9D01348FFF7FDFD0F4800F0F7FF0E
:100970000020094908702DE00000002062000020DE
:1009800000380140240000202800002058000020EA
:1009900022000020150000201B0000202C00002059
:1009A00001000020050000200D000020180000209C
:1009B00040420F00C0C62D00022000F0F1FA8D4920
:1009C0000880084600888C4908700846007800F0C6
:1009D00008000870884800780028EDD08748FFF7A5
:1009E000C1FD5521864802F052FF00BF8021844896
:1009F00002F0BBFF0028F9D0824800F0B0FF66216A
:100A00007F4802F044FF00BF80217D4802F0ADFF27
:100A10000028F9D000207849087014E000BF802138
:100A2000774802F0A2FF0028F9D0022000F0B8FABF
:100A300070490880084600886F49087008460078A9
:100A400000F0080008706C4800780028E6D0882183
:100A50006B4802F01CFF00BF8021694802F085FF4F
:100A60000028F9D0684949780802002100F03EFBCF
:100A70004C21634802F00BFFBAE06448007802287A
:100A80000BD10020614908705F4801F0F7FA552149
:100A90005B4802F0FCFE00F02BFAA9E05B4800780E
:100AA00003280BD1002059490870574801F014F869
:100AB0005621534802F0EBFE00F01AFA98E0534832
:100AC00000780C280BD10020504908704E4801F0E6
:100AD000E5F830214A4802F0DAFE00F009FA87E032
:100AE0004A480078022833D100204849087058212C
:100AF000434802F0CCFE00BF8021414802F035FFA0
:100B00000028F9D040494978080200F083FA022011
:100B100000F046FA374908800846008836490870D0
:100B20003448008800123A49087033480178344844
:100B300002F0ADFE00BF8021314802F016FF002810
:100B4000F9D0334801782E4802F0A1FE00F0D0F928
:100B50004EE02E480078022841D100202B49087031
:100B60006021274802F093FE4FF6FF70FFF7FAFC72
:100B700025494978080200F027FB044625490C70F6
:100B8000200A25490870200C24490870200E2449A9
:100B90000870204801781A4802F079FE4FF6FF707D
:100BA000FFF7E0FC1C480178154802F070FE4FF694
:100BB000FF70FFF7D7FC19480178114802F067FE73
:100BC0004FF6FF70FFF7CEFC154801780C4802F095
:100BD0005EFE4FF6FF70FFF7C5FC00F089F907E0F5
:100BE00000200A4908705521054802F050FE00BF58
:100BF00000BFCFE42C0000201B000020C0C62D0049
:100C0000003801400D00002062000020000000209C
:100C10001C0000201D0000201E0000201F000020DE
:100C200020000020704700BFFEE700BFFEE700BFC6
:100C3000FEE700BFFEE77047704770477047704798
:100C4000704770477047704770477047704710B5DE
:100C5000082001F02EFE01202349087010BD7047C6
:100C600070477047704770477047704770477047CC
:100C700070477047704770477047704770477047BC
:100C800070477047704770477047704770477047AC
:100C900070477047704710B52021144802F072FE6B
:100CA000124802F0F8FDC1B2114802780078401CE9
:100CB0000F4B18700F48815410BD70477047704734
:100CC000704770477047704770477047704770476C
:100CD000704770477047704770477047704770475C
:100CE0007047704770470000210000200038014025
:100CF000000000206200002000210020674A1268E6
:100D000042F48032654B1A6000BF644A126802F4F4
:100D10000030491C10B9B1F5A06FF6D15F4A1268D6
:100D200012F4003F01D0012000E00020012842D150
:100D30005B4A126842F01002594B1A601A46126858
:100D400022F003021A601A46126842F002021A6088
:100D5000524A5268514B5A601A4652685A601A46B3
:100D6000526842F480625A601A46526822F47C1239
:100D70005A601A46526842F4E8125A601A461268DB
:100D800042F080721A6000BF444A126812F0007F7D
:100D9000FAD0424A526822F00302404B5A601A4687
:100DA000526842F002025A6000BF3C4A526802F0A8
:100DB0000C02082AF9D1704710B5FFF79DFF10BD4E
:100DC00010B53648006840F0010034490860084614
:100DD0004068344908403149486008460068324953
:100DE00008402E4908600846006820F4802008600A
:100DF0000846406820F4FE0048604FF41F008860F9
:100E0000FFF7DAFF4FF000602849086010BD10B509
:100E1000002100200022214B5B6803F00C0121B16E
:100E2000042906D0082928D107E0214B214C236052
:100E300027E01F4B1F4C236023E0184B5B6803F433
:100E40007010164B5B6803F48032022303EB904072
:100E500022B9194B4343174C23600DE00F4B5B68DD
:100E600013F4003F04D0144B4343124C236003E0BF
:100E70000F4B43430F4C236003E00D4B0D4C23609D
:100E800000BF00BF054B5B68C3F303130B4CE15C71
:100E9000084B1B68CB40074C236010BD001002407C
:100EA000002002400000FFF8FFFFF6FE08ED00E022
:100EB00000127A003000002000093D0034000020BC
:100EC000420402F1C0421180704710B50446F84850
:100ED000008800F47060F6490880084600882043C6
:100EE00008800846008801B20020FFF7E9FF10BD26
:100EF00000B50020EE4908800846008840F00F0049
:100F000008800846008801B20020FFF7D9FF00BD25
:100F100030B505460C46092D1FD007DC3DD2DFE871
:100F200005F0182D2E2F3031191A1B000E2D2BD045
:100F300008DC0A2D12D00B2D11D00C2D10D00D2D48
:100F40002BD120E0602D0CD0612D1ED0642D24D13A
:100F500008E000BF00BF00BF00BF00BF00BF00BF70
:100F600000BF00BF21B20620FFF7AAFF211407200F
:100F7000FFF7A6FF2846FFF7A8FF0FE000BF00BF5E
:100F800000BF00BF00BF00BF00BF21B20620FFF7B7
:100F900097FF2846FFF799FF00E000BF00BF30BD74
:100FA0000146480400F1C0400088704730B505464E
:100FB0002846FFF78AFFA5F11000052816D2DFE8C2
:100FC00000F003040F10050000BF00BF0720FFF76B
:100FD000E7FF044624040620FFF7E2FF044306E08F
:100FE00000BF0620FFF7DCFF044600E000BF00BFA3
:100FF000204630BD00B50020AD4908800846008875
:1010000040F4004008800846008801B20020FFF745
:1010100057FF00BD10B50446A548008800F07F00CA
:10102000A3490880084600882043088008460088B5
:1010300001B20020FFF744FF10BD30B505460C4655
:1010400021460020FFF764FF30BD30B505460C4651
:1010500021460120FFF75CFF30BD30B505460C4648
:1010600021460E20FFF754FF30BD30B505460C4633
:1010700021460220FFF74CFF30BD30B505460C4637
:1010800021460320FFF744FF30BD30B505460C462E
:1010900021460420FFF73CFF30BD30B505460C4625
:1010A00021460520FFF734FF30BD30B504460D461C
:1010B0002046FFF7AFFF29460620FFF729FF30BD86
:1010C00030B504460D462046FFF7A4FF2946072009
:1010D000FFF71EFF30BD30B504460D462046FFF732
:1010E00099FF29460820FFF713FF30BD30B50446AD
:1010F0000D462046FFF78EFF29460920FFF708FF1F
:1011000030BD30B504460D462046FFF783FF294623
:101110000A20FFF7FDFE30BD30B504460D462046DF
:10112000FFF778FF29460B20FFF7F2FE30BD30B500
:1011300004460D462046FFF76DFF29460C20FFF7B9
:10114000E7FE30BD30B504460D462046FFF762FF8E
:1011500029460D20FFF7DCFE30BD30B504460D46B4
:101160002046FFF757FF29466020FFF7D1FE30BD2C
:1011700030B504460D462046FFF74CFF2946612056
:10118000FFF7C6FE30BD30B504460D462046FFF7DA
:1011900041FF29466420FFF7BBFE30BD30B5044651
:1011A0002046FFF737FF1120FFF700FF05462846CE
:1011B00030BD30B504462046FFF72CFF1020FFF766
:1011C000F5FE0546284630BD30B504462046FFF7FB
:1011D00021FF1220FFF7EAFE0546284630BD30B554
:1011E00004462046FFF716FF1320FFF7DFFE0546F3
:1011F000284630BD30B504462046FFF70BFF1420CB
:10120000FFF7D4FE0546284630BD00B5024600BFB4
:101210000020FFF7C5FE1042FAD100BD00B500BFA7
:101220000020FFF7BDFE10F4007FF9D000BD00B52F
:1012300000BF0020FFF7B4FE00F4C040B0F5C04F7F
:10124000F7D000BD00B50020FFF7AAFE4FF4706193
:1012500021EA002212F0FF0F3ED1101210283BD2DB
:10126000DFE800F0080A0D101316191C1F22282BA6
:101270002E31343700222FE04FF480722CE04FF4EF
:10128000007229E04FF4407226E04FF4806223E0C0
:101290004FF4A06220E04FF4C0621DE04FF4E06222
:1012A0001AE04FF4006217E04FF4106214E00000FF
:1012B000C60000204FF420620EE04FF430620BE0D5
:1012C0004FF4406208E04FF4506205E04FF4606272
:1012D00002E04FF4706200BF00BF104600BD00B5D1
:1012E0000020FFF75DFE4FF4706101EA001212F07A
:1012F000FF0F3BD11012102838D2DFE800F0080AA7
:101300000D101316191C1F2225282B2E31340022F4
:101310002CE04FF4807229E04FF4007226E04FF485
:10132000407223E04FF4806220E04FF4A0621DE0A1
:101330004FF4C0621AE04FF4E06217E04FF400622D
:1013400014E04FF4106211E04FF420620EE04FF40D
:1013500030620BE04FF4406208E04FF4506205E069
:101360004FF4606202E04FF4706200BF00BF1046AD
:1013700000BD30B504460D46012D09D1FF48408817
:10138000C0B2FE494880084640882043488004E0B7
:10139000FA484088A043F9494880F848408801B29B
:1013A0000120FFF78DFD30BD10B50446012C0CD196
:1013B000F24840894BF6FF710840F04948810846E1
:1013C000408940F48040488106E0EC4840894BF673
:1013D000FF710840E9494881E848408901B2052089
:1013E000FFF76EFD10BD10B50446012C0BD1E3488C
:1013F0004089C0F30E00E14948810846408940F425
:101400000040488105E0DD484089C0F30E00DB491B
:101410004881DA48408901B20520FFF751FD10BD2F
:1014200010B50446012C0CD1D44880894FF6DF71E9
:101430000840D24988810846808940F02000888190
:1014400006E0CE4880894FF6DF710840CB4988819D
:10145000CA48808901B20620FFF732FD6020FFF7FD
:1014600034FD10BD10B50446012C0BD1C348C08912
:10147000C0F30B00C149C8810846C08940F48050C0
:10148000C88105E0BD48C089C0F30B00BB49C881D5
:10149000BA48C08901B20720FFF712FD6420FFF7A8
:1014A00014FD10BD00B50020FFF77AFDC0F3402207
:1014B000104600BD00B50020FFF772FDC0F34132B9
:1014C000104600BD00B50320FFF76AFDC0F30022FF
:1014D000104600BD00B50320FFF762FDC0F34022B7
:1014E000104600BD00B50320FFF75AFDC0F3090206
:1014F000202A22D00CDC042A19D004DC012A12D0C4
:10150000022A26D111E0082A13D0102A21D112E094
:10151000402A14D0802A14D0B2F5807F13D0B2F5BF
:10152000007F16D112E0012215E0022213E004220E
:1015300011E008220FE010220DE020220BE04022F3
:1015400009E0802207E04FF4807204E04FF400725B
:1015500001E0002200BF00BF104600BD00B5022020
:10156000FFF71EFD00F03F02082A12D006DC012A18
:1015700009D0022A09D0042A11D108E0102A0AD081
:10158000202A0CD109E001220BE0022209E004220A
:1015900007E0082205E0102203E0202201E00022FB
:1015A00000BF00BF104600BD01B5744880884FF2EF
:1015B000FF11084071498880BDF802009DF80010B5
:1015C00040EA41206D49898808436C498880084673
:1015D000808801B20220FFF773FC08BD10B50446F5
:1015E00021460A20FFF794FC10BD00B51120FFF73B
:1015F000DDFC00BD07B5614880884FF6DC7108400E
:101600005E4988809DF800009DF8011040EA410085
:101610009DF8021040EA411058498988084357490B
:1016200088800846808801B20220FFF749FC0B2021
:101630000199FFF76DFC0C200299FFF769FC0EBDC4
:1016400030B58AB00546002408E015F8010B3DF8D6
:10165000141008432DF81400601CC4B20D2CF4DBE8
:10166000BDF802100906080CFFF7D4FCBDF8040011
:10167000C0B28DF81C00BDF80600C0B28DF81D0088
:10168000BDF80800C0B28DF81E00BDF80A000006C3
:10169000BDF80C1040EA0140BDF80E1040EA0120F0
:1016A000BDF8101008430890BDF812000006BDF800
:1016B000141040EA0140BDF8161040EA0120BDF8C0
:1016C00018100843099007A807C8FFF793FF0AB04E
:1016D00030BD13B500249DF8000080009DF8011076
:1016E00040EAC1009DF8021040EA01109DF8031085
:1016F00040EA81109DF8041040EAC1109DF80510E1
:1017000040EA01241D4880884FF6236108401B49A8
:10171000888008468088204388800846808801B2F7
:101720000220FFF7CDFB1CBD30B586B00546002476
:1017300008E015F8010B3DF8141008432DF81400CB
:10174000601CC4B2082CF4DBBDF802100906080CBA
:10175000FFF760FCBDF80400C0B28DF81000BDF8C2
:101760000600C0B28DF81100BDF80800C0B28DF8B7
:101770001200BDF80A00C0B202E00000C60000205E
:101780008DF81300BDF80C00C0B28DF81400BDF840
:101790000E00C0B28DF81500DDE90401FFF799FFD6
:1017A00006B030BD0FB400B5019818B10020019902
:1017B000FFF7AEFBBDF8080020B1BDF8081002200D
:1017C000FFF7A6FBBDF80A00B8B1FF48C08840F695
:1017D0009D710840FC49C8800846C08840F002005E
:1017E000C8800846C08801B20320FFF769FBBDF836
:1017F0000A100320FFF78CFB0CE0F348C08840F68A
:101800009D710840F049C8800846C08801B2032095
:10181000FFF756FBBDF80C0010B9BDF80E00E0B1A3
:10182000E948C08840F69B710840E749C8800846EF
:10183000C08840F00400C8800846C08801B2032078
:10184000FFF73EFBBDF80C100120FFF761FBBDF870
:101850000E100E20FFF75CFB0CE0DB48C08840F662
:101860009B710840D849C8800846C08801B203204F
:10187000FFF726FBBDF910100D20FFF749FBBDF85F
:10188000120020B1BDF812100420FFF741FBBDF893
:10189000140020B1BDF814100520FFF739FBBDF886
:1018A0001600B8B1C848C08840F69E710840C649C5
:1018B000C8800846C08840F00100C8800846C0883B
:1018C00001B20320FFF7FCFABDF816100720FFF75E
:1018D0001FFB0CE0BC48C08840F69E710840BA4926
:1018E000C8800846C08801B20320FFF7E9FA5DF816
:1018F00014FB30B587B00446002505E014F8010B51
:1019000001A94855681CC5B2042DF7DB9DF80510E8
:101910000802FFF77FFBAD4802900120ADF80C00F4
:10192000ADF80E000A20ADF81000ADF8120000204E
:10193000ADF816009DF807009DF8061040EA01205A
:10194000ADF818000020ADF81400ADF81A000698A4
:10195000009002A80FC8FFF725FF07B030BD3CB5C7
:101960000446002505E014F8010B0DF80500681C7D
:10197000C5B2082DF7DB9DF801100802FFF74AFBFE
:101980009DF80200082815D19DF8040000069DF876
:10199000052040EA02409DF8062040EA02209DF81A
:1019A000072040EA02010620FFF7B2FA9DF8030083
:1019B000FFF78BFA9DF80200082829DA8248C088D0
:1019C0004FF6F87108408049C8800846C0889DF8E5
:1019D000021008437C49C8800846C08801B2032031
:1019E000FFF76EFA9DF8040000069DF8052040EA16
:1019F00002409DF8062040EA02209DF8072040EAB8
:101A000002010620FFF784FA9DF80300FFF75DFA54
:101A10003CBD38B50446002505E014F8010B0DF86F
:101A20000500681CC5B2032DF7DB9DF80110080204
:101A3000FFF7F0FA9DF80200FFF747FA38BD3CB512
:101A40000446002505E014F8010B0DF80500681C9C
:101A5000C5B2072DF7DB9DF801100802FFF7DAFA8F
:101A60004FF4BE416020FFF753FA9DF802000006D4
:101A70009DF8032040EA02409DF8042040EA02203D
:101A80009DF8052040EA02010620FFF741FA4E4882
:101A9000C08840F6877108404B49C8800846C08816
:101AA0009DF8061040EAC1004749C8800846C08832
:101AB00001B20320FFF704FA3CBD00B54248C088DC
:101AC00040F6877108404049C8800846C08801B286
:101AD0000320FFF7F5F900BD38B50446002505E001
:101AE00014F8010B0DF80500681CC5B2032DF7DBD7
:101AF0009DF801100802FFF78DFA9DF80200FFF72C
:101B0000E4F938BD38B50446002505E014F8010BAA
:101B10000DF80500681CC5B2032DF7DB9DF8011018
:101B20000802FFF777FA28488088C0F30B0026499F
:101B30008880084680889DF8021040EA01302249DA
:101B400088800846808801B20220FFF7B9F938BDC5
:101B50003CB50446002505E014F8010B0DF805001E
:101B6000681CC5B2082DF7DB9DF801100802FFF7CD
:101B700051FA9DF8011008020021FFF7B7FA124848
:101B800080884FF6DC7108400F49888008468088BD
:101B90009DF8021008430C498880084680889DF80B
:101BA000031040EA4110084988800846808801B245
:101BB0000220FFF785F99DF80200012817D19DF852
:101BC0000400000604E00000C600002000127A00B5
:101BD0009DF8052040EA02409DF8062040EA0220D8
:101BE0009DF8072040EA02010B20FFF791F99DF8CC
:101BF0000200022811D19DF8040000069DF805207E
:101C000040EA02409DF8062040EA02209DF80720A5
:101C100040EA02010C20FFF77BF93CBD00B5FF480C
:101C200040884FF6CF710840FC49488008464088FC
:101C300040F0300048800846408801B20120FFF79C
:101C40003FF9F64880894FF6FE710840F3498881D4
:101C50000846808940F0010088810846808901B2E9
:101C60000620FFF72DF94FF4BE416020FFF750F931
:101C700000BD0146012906D0022906D0042906D05C
:101C8000082908D105E0002006E0012004E0022038
:101C900002E0032000E000BF00BF70473EB50446ED
:101CA000002505E014F8010B0DF80500681CC5B20D
:101CB0000C2DF7DBD948408900F45B40D7494881B7
:101CC0009DF80100FFF7D5FF02469DF80200FFF7DF
:101CD000D0FF42EA8000D14949890843CF49488171
:101CE0000846408901B20520FFF7EAF89DF8011087
:101CF0000802FFF78FF99DF8030000069DF8042005
:101D000040EA02409DF8052040EA02209DF80620A6
:101D100040EA02010620FFF7FBF89DF802100802D6
:101D2000FFF778F99DF8070000069DF8082040EAC3
:101D300002409DF8092040EA02209DF80A2040EA6E
:101D400002010620FFF7E4F89DF80B00FFF7BDF84D
:101D50003020FFF7BAF83EBD30B585B00446002507
:101D600005E014F8010B0DF80500681CC5B2112D33
:101D7000F7DBAA48408900F45B40A84948819DF8F8
:101D80000100FFF776FF02469DF80200FFF771FFA2
:101D900042EA80029DF80300FFF76BFF42EA001061
:101DA0009E49498908439D4948810846408901B2B6
:101DB0000520FFF785F89DF801100802FFF72AF9C2
:101DC0009DF8040000069DF8052040EA02409DF8B9
:101DD000062040EA02209DF8072040EA0201062082
:101DE000FFF796F89DF802100802FFF713F99DF827
:101DF000080000069DF8092040EA02409DF80A20EC
:101E000040EA02209DF80B2040EA02010620FFF77D
:101E10007FF89DF803100802FFF7FCF89DF80C000E
:101E200000069DF80D2040EA02409DF80E2040EA91
:101E300002209DF80F2040EA02010620FFF768F813
:101E40009DF81000FFF741F83120FFF73EF805B08C
:101E500030BD30B585B00446002505E014F8010B0F
:101E60000DF80500681CC5B2142DF7DB6B484089DE
:101E700000F45B40694948819DF80100FFF7F9FED5
:101E800002469DF80200FFF7F4FE42EA8000634933
:101E900049890843614948810846408901B20520C3
:101EA000FFF70EF89DF801100802FFF7B3F89DF850
:101EB000030000069DF8042040EA02409DF805203A
:101EC00040EA02209DF8062040EA02010820FFF7C0
:101ED0001FF89DF80B0000069DF80C2040EA024018
:101EE0009DF80D2040EA02209DF80E2040EA0201F4
:101EF0000620FFF70DF89DF801100802FFF78AF899
:101F00009DF8070000069DF8082040EA02409DF871
:101F1000092040EA02209DF80A2040EA0201082038
:101F2000FEF7F6FF9DF80F0000069DF8102040EA2E
:101F300002409DF8112040EA02209DF8122040EA5C
:101F400002010620FEF7E4FF9DF81300FEF7BDFF37
:101F50003220FEF7BAFF05B030BD30B585B004467B
:101F6000002505E014F8010B0DF80500681CC5B24A
:101F7000142DF7DB2948408900F45B40274948814C
:101F80009DF80100FFF775FE02469DF80200FFF77D
:101F900070FE42EA80002149498908431F4948816F
:101FA0000846408901B20520FEF78AFF9DF801101E
:101FB0000802FFF72FF89DF8030000069DF80420A3
:101FC00040EA02409DF8052040EA02209DF80620E4
:101FD00040EA02010820FEF79BFF9DF80B00000677
:101FE0009DF80C2040EA02409DF80D2040EA0220B6
:101FF0009DF80E2040EA02010620FEF789FF9DF8B9
:1020000002100802FFF706F89DF8070000069DF889
:10201000082040EA02409DF8092001E0C6000020A7
:1020200040EA02209DF80A2040EA02010820FEF75B
:102030006FFF9DF80F0000069DF8102040EA024057
:102040009DF8112040EA02209DF8122040EA02018A
:102050000620FEF75DFF9DF81300FEF736FF3320E4
:10206000FEF733FF05B030BD00B541F20411052085
:10207000FEF726FF3A20FEF728FF00BD38B50546DB
:10208000002405E015F8010B0DF80400601CC4B233
:10209000022CF7DB9DF8010048B940F60401052049
:1020A000FEF70EFF4FF4BE416020FEF731FF9DF8B2
:1020B0000100012804D141F204110520FEF700FFC0
:1020C0003A20FEF702FF38BD00B540F604110520A6
:1020D000FEF7F6FE4FF4BE416020FEF719FF3A20EE
:1020E000FEF7F3FE00BD10B504462046FEF7EDFEF8
:1020F00010BD10B504462046FEF7E7FE10BD00B542
:102100000020FEF74DFFC0F30022104600BD00B5D1
:102110000020FEF745FFC0F34022104600BD00B589
:102120000346102B0FD20420FEF73AFF024642FA74
:1021300003F082B202F00102012A01D1012000E085
:102140000020C0B200BD103B0520FEF729FF02466B
:1021500042FA03F082B202F00102012A01D1012009
:1021600000E00020C0B2EDE770B504460D46012640
:10217000202C29D2DFE804F010111213292A2B2C6D
:10218000444546475F6061627A7B7C7D969798996B
:10219000B2B3B4B5CECFD0D100BF00BF00BF05FAF7
:1021A00004F085B206FA04F086B2FF480089B04315
:1021B000FD490881084600892843088108460089AE
:1021C00001B20420FEF77CFEBDE000BF00BF00BFEF
:1021D000201DC4B205FA04F085B206FA04F086B2F6
:1021E000F148C088B043F049C8800846C0882843F9
:1021F000C8800846C08801B20320FEF761FEA2E055
:1022000000BF00BF00BF201FC4B205FA04F085B2B2
:1022100006FA04F086B2E4480089B043E249088136
:1022200008460089284308810846008901B2042035
:10223000FEF746FE87E000BF00BF00BF201FC4B20C
:1022400005FA04F085B206FA04F086B2D648C088D2
:10225000B043D549C8800846C0882843C88008468E
:10226000C08801B20320FEF72BFE6CE000BF00BF68
:1022700000BFA4F10800C4B205FA04F085B206FA62
:1022800004F086B2C8480089B043C74908810846AF
:102290000089284308810846008901B20420FEF71E
:1022A0000FFE50E000BF00BF00BFA4F10C00C4B29D
:1022B00005FA04F085B206FA04F086B2BA48C0887E
:1022C000B043B949C8800846C0882843C88008463A
:1022D000C08801B20320FEF7F3FD34E000BF00BF69
:1022E00000BFA4F10C00C4B205FA04F085B206FAEE
:1022F00004F086B2AC480089B043AB490881084677
:102300000089284308810846008901B20420FEF7AD
:10231000D7FD18E000BF00BF00BFA4F11400C4B295
:1023200006FA04F086B2A048C088B0439E49C8802F
:102330000846C0882843C8800846C08801B20320E8
:10234000FEF7BEFD00BF00BF70BD00B54FF4BE413B
:102350006020FEF7DDFD00BD3FB50446002504E02A
:1023600014F8010B0DF805006D1C0D2DF8DB9DF820
:1023700001100802FEF74EFE8B48408800F47F40B3
:1023800089494880084640889DF8021008438649DC
:1023900048800846408801B20120FEF791FD9DF873
:1023A000030000069DF8042040EA02409DF8052045
:1023B00040EA02209DF8062040EA02016020FEF774
:1023C000A7FD9DF808009DF8072040EA0221612042
:1023D000FEF79EFD9DF8090000069DF80A2040EAE0
:1023E00002409DF80B2040EA02209DF80C2040EAB4
:1023F00002010620FEF78CFD6220FEF766FD3FBD60
:1024000000B5694840884FF63371084066494880F6
:102410000846408801B20120FEF752FD00BD30B5EC
:102420008CB00446002505E014F8010B0DF80500FA
:10243000681CC5B22D2DF7DB5B4880884FF6DF7135
:102440000840594988800846808801B20220FEF77A
:1024500037FD9DF801100802FEF7DCFD9DF8021023
:102460000802FEF7D7FD9DF803100802FEF7D2FD23
:102470009DF804100802FEF7CDFD9DF80520120618
:102480009DF8063042EA03429DF8073042EA0322F3
:102490009DF8083042EA03019DF801201002FEF782
:1024A0003BFE9DF8011008020021FEF71FFE9DF87B
:1024B000021008020021FEF719FE9DF80310080221
:1024C0000021FEF713FE9DF8041008020021FEF71C
:1024D0000DFE9DF8092012069DF80A3042EA0342DB
:1024E0009DF80B3042EA03229DF80C3042EA0301CA
:1024F0009DF801201002FEF7D8FD9DF80D20120670
:102500009DF80E3042EA03429DF80F3042EA032262
:102510009DF8103042EA03019DF802201002FEF7F8
:10252000C4FD9DF8112012069DF8123042EA0342C4
:102530009DF8133042EA03229DF8143042EA030169
:102540009DF803201002FEF7B0FD9DF8152012063D
:102550009DF8163042EA03429DF8173042EA032202
:102560009DF8183042EA03019DF804201002FEF79E
:102570009CFD9DF8192012069DF81A3042EA03428C
:102580009DF81B3042EA03229DF81C3042EA030109
:102590009DF801201002FEF7F6FD9DF81D201206A1
:1025A0009DF81E3002E00000C600002042EA03420F
:1025B0009DF81F3042EA03229DF8203042EA0301D1
:1025C0009DF802201002FEF7DEFD9DF82120120684
:1025D0009DF8223042EA03429DF8233042EA03226A
:1025E0009DF8243042EA03019DF803201002FEF713
:1025F000CAFD9DF8252012069DF8263042EA0342C6
:102600009DF8273042EA03229DF8283042EA030170
:102610009DF804201002FEF7B6FD9DF801009DF81C
:10262000292042EA002001B20020FEF749FC9DF873
:1026300002009DF82A2042EA002001B20020FEF7A5
:102640003FFC9DF803009DF82B2042EA002001B2D8
:102650000020FEF735FC9DF804009DF82C2042EA8E
:10266000002001B20020FEF72BFC0CB030BD00B5FD
:102670004FF47060FEF7CEFC00216420FEF748FCAA
:10268000FEF736FC00BD00000948804709480047B6
:10269000FEE7FEE7FEE7FEE7FEE7FEE7FEE7FEE712
:1026A000FEE7FEE704480549054A064B704700006F
:1026B000C10D000831010008480100204807002032
:1026C000480300204803002036490143364A116080
:1026D000704770B5002100230F22C4784CB3324CF0
:1026E000246804F4E064C4F5E0644FEA1421C1F105
:1026F000040322FA01F2447804FA03F1847804EA2C
:10270000020444EA01014FEA0111284C0678A15560
:10271000047804F01F054FF0010404FA05F405786D
:102720004FEA65154FF0E02606EB8505C5F8004138
:1027300009E0047804F01F050124AC401C4D067824
:10274000761145F8264070BD1A4A0A4002431A4BDA
:102750001A60704741B1194A126842EA00024FF00C
:10276000E023C3F8102D07E0144A126822EA0002A1
:102770004FF0E023C3F8102D7047042808D14FF024
:10278000E021096941F004014FF0E022116107E006
:102790004FF0E021096921F004014FF0E0221161BE
:1027A000704700000000FA050CED00E000E400E0D6
:1027B00080E100E080FFFF1F08ED00E010ED00E089
:1027C0000020474908604749C1F8040446490860A9
:1027D00001F104010860454845490860704700213F
:1027E0003F498279DAB33F4AD2F8002403689A431A
:1027F0003C4BC3F800241A46D2F8042403689A43D9
:1028000001F104031A60027911440A68036842EA7C
:1028100003020A60334AD2F80824036822EA03025A
:10282000304BC3F808241A46D2F80C24036822EA75
:102830000302304B1A604279102A11D1294AD2F88A
:10284000082403681A43274BC3F808241A46D2F811
:102850000C2403681A43234BC3F80C240EE007E052
:102860001F49427911440A6803681A430A6005E067
:10287000027911440A6803689A430A60704700218C
:10288000016001710C2141710021817170471A4969
:10289000096841EA0001134AC2F810147047014662
:1028A0000020134A12680A4201D0012000E00020F3
:1028B00070470F4908607047014600200022084B0E
:1028C0001B6803EA0102074BD3F814340B4202D011
:1028D0000AB1012000E000207047054908607047F8
:1028E000000401400000014008040140FFFF0F0008
:1028F000140401400C0401401004014030B943F2BB
:10290000DB014FF0204242F8201005E043F2D201F3
:102910004FF0204242F820106FF07042411C4FF0FF
:10292000204343F8212011461A4602EB8002C2F8E8
:102930000411704710280AD118214FF02042116667
:10294000402151664FF0FC319166D16610E01821AC
:10295000F84A11604FF040014FF02042C2F8841055
:102960004FF0FC31F44A11604FF02042C2F88C1055
:1029700070471820F14908604FF000004FF02041E7
:10298000C1F8A4004FF0FC30ED49086001F10401EA
:10299000086001F1040108607047D0E90112114399
:1029A000C2681143026911434269114382691143AC
:1029B000C2691143026A1143426A1143826A114398
:1029C000C26A1143026B11434FF02043026843F87F
:1029D00022108168082908D11A46016852F821108E
:1029E00041F04001026843F82210416B0968426BD4
:1029F000526841EA0211426B926841EA0221426B3D
:102A0000D26841EA0241426B126941EA0251426BCB
:102A1000526941EA0261426B926911430268521C99
:102A20004FF0204343F82210C16AB1F5804F1AD10C
:102A3000816B0968826B526841EA0211826B92686D
:102A400041EA0221826B126941EA0251826B5269AA
:102A500041EA0261826B92691143026803EB8202D0
:102A6000C2F8041108E06FF070414FF02043026893
:102A700003EB8202C2F80411704730B50021002236
:102A80000023446844F0080485682C43C5682C433F
:102A900005692C43456944EA4524856944EA453182
:102AA000C4692468C5696D6844EA0524C569AD68D0
:102AB00044EA0544C569ED6844EA0562046A24688D
:102AC000056A6D6844EA0524056AAD6844EA054470
:102AD000056AED6844EA05630468102C05D14FF0DF
:102AE00020442166A266E36607E0924C21604FF025
:102AF0002044C4F88820934C236030BD016841F025
:102B00001001426841EA4221826841EA42318B4A1F
:102B10001160C1680968C268526841EA0221C2684E
:102B2000926841EA0241C268D26841EA0261844A7D
:102B30001160016909680269526841EA022102696B
:102B4000926841EA02410269D26841EA02617E4A22
:102B50001160416909684269526841EA022142698B
:102B6000926841EA02414269D26841EA02614FF04B
:102B70002042C2F8B010704700210160022141607C
:102B800000218160C160016141618161C1610162B7
:102B90004FF480514162490081620021C1620163AA
:102BA0000F21426B1160426B5160FF21426B9160BB
:102BB0000F21426BD160426B1161426B5161002168
:102BC000426B91610F21826B1160826B5160FF211A
:102BD000826B91600F21826BD160826B1161826B7D
:102BE00051610021826B91617047102101600021C9
:102BF00041608160C160016141618161FC21C26904
:102C00001160C2695160C2699160C269D160026A93
:102C10001160026A5160026A9160026AD160704775
:102C20000021016041608160FC21C2681160C268BE
:102C30005160C2689160C268D16002691160026926
:102C40005160026991600269D16042691160426914
:102C50005160426991604269D160704751B14FF053
:102C6000204252F8202042F001024FF0204343F866
:102C7000202009E04FF0204252F82020334B1A4028
:102C80004FF0204343F82020704799B1102808D115
:102C90004FF02042126E42F004024FF020431A66B9
:102CA0001DE0244A126842F004024FF02043C3F8AA
:102CB000802014E0102809D14FF02042126E234BDF
:102CC000DB1E1A404FF020431A6608E0194A1268CA
:102CD0001F4B02EA03024FF02043C3F880207047E5
:102CE00040B11649096841F004014FF02042C2F892
:102CF000A01008E011490968154A01EA02014FF0E5
:102D00002042C2F8A010704799B1102808D14FF0A6
:102D10002042126E42F040024FF020431A662DE02E
:102D2000044A126842F040024FF02043C3F880206A
:102D300024E00FE0800000A0880000A0A00000A018
:102D4000A80000A08C0000A0AC0000A0FEFF0F00B7
:102D5000FBFF0F00102808D14FF02042126E684B85
:102D60001A404FF020431A6608E0664A1268644B26
:102D700002EA03024FF02043C3F880207047014667
:102D80000020102903D14FF02042506F01E05E4A2D
:102D90001068704710B5F2B1102807D14FF02043EA
:102DA0005B6E0B434FF02044636632E0B0F5807FEA
:102DB00008D1564B1B6843EA01034FF02044C4F886
:102DC000843026E0524B1B6843EA01034FF0204455
:102DD000C4F8A4301DE0102807D14FF020435B6EEB
:102DE0008B434FF02044636613E0B0F5807F08D139
:102DF000464B1B6823EA01034FF02044C4F884309B
:102E000007E0434B1B6823EA01034FF02044C4F85A
:102E1000A43010BD10B5024600200023102A03D1B3
:102E20004FF02044636E07E0B2F5807F02D1374C4B
:102E3000236801E0364C23680B4201D0012000E0FA
:102E4000002010BD102807D14FF02042526E8A4357
:102E50004FF020435A6613E0B0F5807F08D12B4A2B
:102E6000126822EA01024FF02043C3F8842007E0F1
:102E7000274A126822EA01024FF02043C3F8A42037
:102E8000704770B502460020002300240025102A58
:102E900003D14FF02046736E07E0B2F5807F02D178
:102EA0001A4E336801E01A4E336803EA010403EA5C
:102EB000D10514B10DB1012000E0002070BD102833
:102EC00008D14FF02042526E22EAD1024FF0204347
:102ED0005A6613E0B0F5807F08D10C4A126822EAE6
:102EE000D1024FF02043C3F8842007E0084A12685B
:102EF00022EAD1024FF02043C3F8A420704700001B
:102F0000BFFF0F00800000A0940000A0840000A07C
:102F1000A40000A010B50446CA48844208D101218B
:102F2000042000F024FB0021042000F020FB46E0F8
:102F3000C548844208D10121082000F018FB002177
:102F4000082000F014FB3AE0C048844208D1012177
:102F5000102000F00CFB0021102000F008FB2EE0F8
:102F6000BB48844208D10121202000F000FB002151
:102F7000202000F0FCFA22E0B648844208D101216A
:102F8000402000F0F4FA0021402000F0F0FA16E0B2
:102F9000B148844208D10121802000F0E8FA0021E4
:102FA000802000F0E4FA0AE0AC48844207D1012115
:102FB000801500F0DCFA0021A01500F0D8FA10BD51
:102FC00010B50121084600F0D2FA0021012000F0DE
:102FD000CEFA10BD2DE9F041024600250026002062
:102FE00000230024002791F803C00CF00F0591F88E
:102FF00003C01CF0100F03D091F802C04CEA050585
:10300000B1F800C01CF0FF0F31D0146800202BE095
:103010004FF0010C0CFA00F3B1F800C00CEA030603
:103020009E4220D183004FF00F0C0CFA03F7BC43F3
:1030300005FA03FC4CEA040491F803C0BCF1280F24
:1030400006D14FF0010C0CFA00FCC2F814C00AE0E3
:1030500091F803C0BCF1480F05D14FF0010C0CFAF8
:1030600000FCC2F810C0401C0828D1D31460B1F88D
:1030700000C0BCF1FF0F34DD546800202EE000F1E9
:10308000080C4FF0010808FA0CF3B1F800C00CEA84
:1030900003069E4221D183004FF00F0C0CFA03F778
:1030A000BC4305FA03FC4CEA040491F803C0BCF1EC
:1030B000280F05D100F1080C08FA0CF8C2F81480AA
:1030C00091F803C0BCF1480F07D100F1080C4FF094
:1030D000010808FA0CF8C2F81080401C0828CED36A
:1030E0005460BDE8F0814FF6FF71018002218170CC
:1030F0000421C17070470246002093680B4201D042
:10310000012000E0002070470146886880B27047C7
:1031100002460020D3680B4201D0012000E00020CD
:1031200070470146C86880B27047016170474161CD
:1031300070470AB1016100E041617047C1607047AA
:103140004FF480320A4382618161826182698269BF
:10315000704702460020424B18684FF680731840B3
:1031600040EA021008433E4B186070473D49C86171
:103170007047F0B50A46002300240021002500F026
:103180000046B6F1004F02D1354EF16901E0344EF0
:103190007168C0F3034583B200F44016B6F5401FD2
:1031A00008D121F070612E4E766826F070662C4FA3
:1031B0007E6012E000F48016B6F5801F06D103266B
:1031C00006FA05F4A14341F0706106E0460D3601B0
:1031D00003FA06F6B14341F0706122B1460D3601A3
:1031E00003FA06F6314300F00046B6F1004F02D173
:1031F0001B4EF16101E01A4E7160F0BD30B5002246
:103200008B071C0F0F2303FA04F2154B08338C10A5
:1032100053F824309343124C08348D1044F8253071
:1032200023468C1053F824308C07240F00FA04F442
:1032300023430B4C08348D1044F8253030BD0A4927
:103240000860704700080140000C01400010014078
:103250000014014000180140001C01400020014002
:103260000000014000002042DC002042DB480068F2
:1032700040F00100D949086008464068D849084034
:10328000D649486008460068D6490840D3490860D6
:103290000846006820F4802008600846406820F452
:1032A000FE0048604FF41F0088607047CB490968F2
:1032B00021F48031C94A11601146096821F4802146
:1032C0001160B0F5803F03D0B0F5802F0ED106E03D
:1032D000C249096841F48031C04A116007E0BF4922
:1032E000096841F4A021BD4A116000E000BF00BFA1
:1032F000704710B501460022002300204A11012A20
:1033000002D1B64C236806E0022A02D1B34C236AEC
:1033100001E0B24C636A01F01F02012494401C4298
:1033200001D0012000E0002010BD70B50024002570
:10333000002600BF3120FFF7DCFF0646641CB4F511
:10334000A06F01D0002EF5D03120FFF7D2FF08B1D9
:10335000012500E00025284670BD014600209F4A57
:10336000106820F0F80040EAC100106070479E49E4
:103370000860704702460020984B586820F47C1083
:1033800042EA01031843954B586070479649086616
:10339000704701460020914A506820F0030008431E
:1033A000506070478D48406800F00C00704701463F
:1033B00000208A4A506820F0F000084350607047AF
:1033C00001460020854A506820F4E06008435060C0
:1033D000704701460020814A506820F4605040EA5E
:1033E000C1005060704729B17C4A527A02437B4B3E
:1033F0005A7206E0794A527AC343DBB21A40774BDD
:103400005A72704779490860704701460020734A34
:10341000506820F440400843506070470021744ACF
:1034200011706E4A82F82010012802D0042808D1B9
:1034300003E001216E4A117004E005216C4A11700D
:1034400000E000BF00BF70476A49086070476349E9
:10345000096A0143614A1162704767490860704711
:1034600030B500210022002400235C4D6D6805F07A
:103470000C0121B1042905D0082923D105E05F4DB5
:10348000056022E05D4D05601FE0544D6D6805F458
:103490007012524D6D6805F48034022505EB92429E
:1034A0001CB9574D554305600BE04C4D6D6815F444
:1034B000003F03D0524D5543056002E04F4D554348
:1034C000056002E04D4D056000BF00BF434D6D68D3
:1034D00005F0F00109094B4D6B5C0568DD40456066
:1034E0003E4D6D6805F4E061090A464D6B5C456828
:1034F000DD408560394D6D6805F46051C90A414D64
:103500006B5C4568DD40C560344D6D6805F4404135
:10351000890B3D4D6B5CC568B5FBF3F5056130BDAE
:1035200029B12E4A526902432C4B5A6104E02B4ABE
:1035300052698243294B5A61704729B1274A9269DF
:103540000243264B9A6104E0244A92698243234B4A
:103550009A61704729B1214AD26902431F4BDA614F
:1035600004E01E4AD26982431C4BDA61704729B1DC
:103570001A4AD2680243194BDA6004E0174AD2684B
:103580008243164BDA60704729B1144A126902432C
:10359000124B1A6104E0114A126982430F4B1A61FF
:1035A00070471A49086070470F49C86470470B4953
:1035B000C87170470948406A40F080700749486206
:1035C000704701460020054A92680A4201D0012056
:1035D00000E00020704701498872704700100240E7
:1035E0000000FFF8FFFFF6FE00004242D800424212
:1035F00020100240800442423C04424200127A0001
:1036000000093D00440000205400002040044242D4
:1036100010B50446FC48844209D101218803FFF714
:10362000A6FF00214FF48040FFF7A1FF32E0F748EA
:10363000844209D101214804FFF7A6FF00214FF47D
:103640000030FFF7A1FF25E0F148844209D10121B4
:103650008804FFF799FF00214FF48020FFF794FFC3
:1036600018E0EC48844209D10121C804FFF78CFF1F
:1036700000214FF40020FFF787FF0BE0E64884426B
:1036800008D101210805FFF77FFF00214FF48010CA
:10369000FFF77AFF10BD2DE9F04786B005460E46CC
:1036A0000024A24600BFA1460027B08900B100BF98
:1036B0002F462C8A4CF6FF700440F08804432C827D
:1036C000AC894EF6F3100440B08831890843718903
:1036D00008430443AC81AC8A4FF6FF400440B089F4
:1036E0000443AC8201A8FFF7BBFEC748874202D162
:1036F000DDF810A001E0DDF80CA0A88910F4004F5F
:1037000008D00AEBCA0000EB0A1031684900B0FB90
:10371000F1F807E00AEBCA0000EB0A1031688900F3
:10372000B0FBF1F86420B8FBF0F00401200964213B
:1037300001FB1089A88910F4004F08D0322000EB5B
:10374000C900B0FBF1F000F00700044308E03220AC
:1037500000EB09106421B0FBF1F000F00F0004430E
:103760002C8106B0BDE8F0874FF4165101600021AE
:103770008180C18001810C214181002181817047BC
:1037800010B502460020108A4FF2FF0318400B8844
:103790004C8823438C882343CC88234318431082CE
:1037A00010BD0021018041808180C180704721B11E
:1037B000828942F40052828104E082894DF6FF73CF
:1037C0001A4082817047F0B5034600240026002588
:1037D0000020A1F510676A3F00D100BF1846C1F371
:1037E000421401F01F06012707FA06F5012C01D14A
:1037F0000C3004E0022C01D1103000E014301AB17A
:1038000007682F43076002E00768AF430760F0BD19
:1038100010B51AB1838A0B43838204E0838ACC43B8
:10382000A4B22340838210BD028A4FF6F0731A407F
:103830000282028A0A430282704782894FF2FF7332
:103840001A40828182890A438281704721B182892C
:1038500042F00202828104E082894FF6FD731A4031
:1038600082817047028A4FF6DF731A400282028A11
:103870000A430282704721B1028A42F480420282E6
:1038800004E0028A4BF6FF731A4002827047C1F3CC
:1038900008028280704701468888C0F3080070479C
:1038A000818941F0010181817047028BD2B202838C
:1038B000028B42EA012202837047028B02F47F42AC
:1038C0000283028B0A430283704721B1828A42F04D
:1038D0002002828204E0828A4FF6DF731A408282DD
:1038E000704721B1828A42F01002828204E0828A0B
:1038F0004FF6EF731A408282704721B1828A42F0FC
:103900000802828204E0828A4FF6F7731A408282AC
:10391000704721B1828942F40042828103E08289AA
:10392000C2F30E028281704721B1828A42F40062A2
:10393000828204E0828A4FF2FF731A4082827047CB
:10394000828A4FF6FB731A408282828A0A438282FD
:10395000704721B1828A42F00202828204E0828AA8
:103960004FF6FD731A408282704702460020B1F57F
:10397000007F00D100BF13880B4201D0012000E07E
:103980000020704701F40072B2F5007F00D100BF43
:10399000CA430280704770B5024600240023002508
:1039A0000020A1F510666A3E00D100BFC1F34215A8
:1039B00001F01F03012606FA03F3012D02D19689B7
:1039C000334006E0022D02D1168A334001E0968A88
:1039D00033400C12012606FA04F41688344013B161
:1039E0000CB1012000E0002070BD10B500220023C2
:1039F000A1F510646A3C00D100BF0A120124944072
:103A0000A3B2DC43048010BD0038014000440040F4
:103A100000480040004C0040005000407047704794
:103A20007047754600F028F8AE46050069465346D3
:103A300020F00700854618B020B5FEF733FEBDE83C
:103A400020404FF000064FF000074FF000084FF005
:103A5000000B21F00701AC46ACE8C009ACE8C00996
:103A6000ACE8C009ACE8C0098D4670470446AFF326
:103A700000802046FCF7A5FB00487047E8000020C6
:103A800001487047704700BFEC0000200149182032
:103A9000ABBEFEE726000200704710B5FFF7F0FF4F
:103AA0004FF00001016010BDC83A0008000000207E
:103AB000580000006C010008203B0008580000205E
:103AC000F00600008801000800000000000000006F
:103AD00000000000000000000000000000000000E6
:103AE00000000000000000000000000000000000D6
:103AF000000000000000000000A24A0400000000D6
:103B0000000000000102030406070809000000008D
:103B1000010203040102030406070809020406085F
:0400000508000131BD
:00000001FF
